:020000000C28CA
:10000800FE00030EF7000408F8000A08F9000D289E
:10001800BB2B0B1C10281128972883120313061AD0
:100028001628172895287308031D1B288A28730388
:10003800031D1F28202824287012701D24287016DC
:10004800701E2728282830288312031305118316C9
:1000580005150430F006352883120313051183169D
:100068000511701283123A1C3A2870168312031372
:100078000310BA0CF303952805194328442895283A
:10008800F10A7015B90195280310B90C051D4D2802
:100098004E285128B9170430F006F10A9528051999
:1000A80056285828013059280030F60070195D2864
:1000B8005F280130602800307606031D6428652813
:1000C80066285128F1019528051D6B286C2866289B
:1000D8003608093A031D712872287A28F015F01499
:1000E800061283160612831206116628B60A7208CB
:1000F800203E8400390883138000F20A7208093A06
:10010800031D872888286628F20166287108003AA6
:1001180003194028093A03195328033A0319682890
:1001280048280B10082980308312031381070B110C
:10013800C90B9F28A028D528C90ACA280518A528A8
:10014800A628D5280730C900BC0AD5280518AD2827
:10015800AE28B2281030C900BF01A828BC01D52894
:100168000310BF0C051CB928BA28BB28BF171030CC
:10017800C900A828BB0A3D08293E840003103F0C8B
:1001880083138000BD0A0730BD05B2283C08003A39
:100198000319A228013A0319AA28083A0319BE2804
:1001A800B4287408031DD928F32874080F39031DCF
:1001B800DE28DF28F228F01AE228E6288312031343
:1001C8000614E928831203130610F012401CED28C8
:1001D800F016831203130310C00CC017F403480869
:1001E800031DF728F828C803F01DFB28FC28082958
:1001F800043036020318012902290829F0110612D1
:10020800831606168312061579088A007808840072
:10021800770E8300FE0E7E0E09004F23B1003108D1
:10022800AA3A031D182919292F2937080C39031D43
:100238001E291F292F294F23B100B108031D252985
:100248002629A7290611A82170182B292C292D2920
:10025800A7290615A72937080C3903193429352980
:10026800A729B11D38293929A7294F23B2004F23BF
:10027800B300310807393506031D432944294F299E
:10028800B208031D482949294F29B308031D4D29E0
:100298004E294F29A7293108B5000730B505C701F0
:1002A8004717311C582959295A29C716B11C5D29E5
:1002B8005E295F294716311D622963296529303077
:1002C800C704311E682969297129C714B21B6D2911
:1002D8006E297729B201B20A7729B21F74297529C4
:1002E8007729FF30B200321F7A297B297C294714ED
:1002F8003208C5003F30C505B309B30AB11E8529C8
:1003080086298D29B31F89298A299829FF30B300A6
:1003180098293308031D91299829B31B94299529F5
:100328009729B301B30AC715331F9B299C299D2917
:1003380047153308C6003F30C60547088B234508D4
:100348008B2346088B2308007010FF306423340881
:10035800FA3A0319B029B129B42901307823332A8C
:100368004F23F5007508AA3A0319BB29BC29BF29F0
:1003780002307823332A4F23F5007508031DC52959
:10038800C82903307823332AF63064233408FA3A2C
:100398000319CF29D029D32904307823332A2830C8
:1003A800C200F3300B233408FA3A0319DC29DD299B
:1003B800E02905307823332A0330C200E8300B23C4
:1003C8003408FA3A0319E929EA29ED29063078238D
:1003D800332AE63064233408FA3A0319F429F52954
:1003E800F82907307823332AE93064233408FA3AA5
:1003F8000319FF29002A032A08307823332A4F23B8
:10040800F5004F23F5007508033A03190C2A0D2A45
:10041800102A09307823332A4F23F5007508283A23
:100428000319172A182A1B2A0A307823332A371463
:10043800F43064233408FA3A031D232A242A262A8E
:100448003715322AF03064233408FA3A03192D2A72
:100458002E2A312A0B307823332AB7157014080056
:100468002D2306119630AE234D308B2340308B233D
:1004780000308B2300308B230615851C442A452A1F
:10048800472AE722412A3B08031D4B2A592A9E2363
:100498008B233B08031D512A532A9E238B233B0899
:1004A800031D572A592A9E238B233608031D5D2ACC
:1004B8005F2A11216C2AB71D622A632A6C2AEB3045
:1004C80099223408FA3A031D6A2A6B2A6C2A5D2A93
:1004D800F01C6F2A702A412AF010B71C742A752A5A
:1004E800832A3711F03064233408FA3A031D7D2A31
:1004F8007E2A802AB715832AB7110B307823371C38
:10050800862A872A412A1430C200F3300B23340884
:10051800FA3A031D902A912A942A3710B714962A7A
:1005280005307823B715412A0C28C10071080A3A0A
:10053800031D9F2AA02AA52AF108031DA42AA52A7B
:10054800A02A06128316061202308312C800C808B1
:10055800031DAF2AB02AAB2AB901F1017208B8000D
:10056800B6010511831605118312061283160616A5
:1005780070128312411CC12A7016831203130310D0
:10058800410CBA0070150930F300F308031DCD2A99
:10059800CE2AC92A8B13061AD22AD32ACF2A0511A2
:1005A8008316051583120519DA2ADB2AD62A061AB4
:1005B800DE2ADF2ADB2A061EE22AE32ADF2A8B1735
:1005C8004F23B400080006118518EB2AEC2AE82A04
:1005D8000230AE23B71DF12AF22A012BEB30992203
:1005E8003408FA3A031DF92AFA2A012B0830B50013
:1005F8004D308B23112106150A2B4D308B234030AB
:100608008B2300308B2300308B23FF2A0800C30084
:10061800C401430899223408FE3A031D142B152BF4
:100628001E2B4408043A031D1A2B1B2B1C2B2C2BA6
:10063800C40A0D2B420899223408FE3A031D252BC3
:10064800262B2C2B4408043A031D2B2B2C2B1C2B5C
:10065800080007309F00850186011F30831685003A
:10066800860181178312BC01F101B701BB01C901E1
:10067800C90A061283160616831205118316051574
:1006880081128030831281008B168B15F8308B0510
:100698008B17861008003608031D532B4F2BB60303
:1006A8003808203E840083130008F500B80A38088B
:1006B800093A031D602B612B622BB80175080800ED
:1006C800C200C301420899223408FE3A031D6D2B6B
:1006D8006E2B772B4308043A031D732B742B752B51
:1006E800772BC30A662B0800C2000611FA30AE2326
:1006F8000615FA30AE23FA30AE230611FA30AE23CF
:10070800FA30AE23C20B892B8A2B7C2B0800C10040
:10071800F408031D902B912B8C2B851C942B952B67
:10072800962B9D2BF0124108C000C013C017A030B3
:10073800F40008003B08031DA22B9E2BBB033E08B8
:10074800293E840083130008F500BE0A0730BE0561
:1007580075080800C1001430C800C808031DB52B6F
:10076800B62BB12BC10BB92BBA2BAF2B0800F0015C
:10077800713084007630C7238313203084004130E1
:10078800C7238301342A64008001840A04060319FC
:0607980000340406C82B2A
:02400E0002FFAF
:00000001FF
