:020000001028C6
:10000800FE00030EF1000408F2000A08F300831250
:1000180003137F08F4001128632C323081070B1179
:10002800780985004D0986007D1C1B281C283A2864
:10003800F501F6017508203E840083130008F000DE
:1000480075082F3E840070088000F50A0319F60A27
:100058007608803AFF0080307F02031D35280F3074
:100068007502031C382839281E287D10F8018312D0
:100078000313CD012F087902031843284428452883
:10008800CD153008790203184A284B284C284D16FC
:10009800310879020318512852285328CD163208FE
:1000A80079020318582859285A284D173308790215
:1000B80003185F2860286128CD17340879020318CF
:1000C80066286728682878173508790203186D2884
:1000D8006E286F284D14360879020318742875287D
:1000E8007628CD143708790203187B287C287D28C8
:1000F8004D15380879020318822883288428F817B0
:1001080039087902031889288A288B2878143A082C
:1001180079020318902891289228F8143B0879024C
:10012800031897289828992878153C087902031805
:100138009E289F28A028F8153D0879020318A528AD
:10014800A628A7287816F90A3F30F9057708031D6D
:10015800AE28AF28F703FD18B228B328CA287A08B2
:10016800031DB728B928FA03CA287B08031DBD2830
:10017800BF28FB03C8287C08031DC328C528FC0327
:10018800C628FD14EF30FB00F130FA007408FF00B8
:1001980073088A0072088400710E8300FE0E7E0EBA
:1001A80009007B087A06D0000630D0052108A00097
:1001B800403022020318E128E228E428A101EB28B4
:1001C800D008031DE828E928EB284030A1002408BE
:1001D800A300403025020318F228F328F528A401CB
:1001E800FC28D008031DF928FA28FC284030A40070
:1001F8002708A600403028020318032904290629E5
:10020800A7010D29D008031D0A290B290D29403003
:10021800A7002A08A90040302B0203181429152921
:100228001729AA011E29D008031D1B291C291E29CC
:100238004030AA002D08AC0040302E0203182529B2
:1002480026292829AD012F29D008031D2C292D295D
:100258002F294030AD002208D0002508A200280828
:10026800A5002B08A8002E08AB005008AE0090246B
:100278000230382408007D22851A432944294F2951
:10028800FD140030AD2301303824851E4C294D293A
:10029800472901303824FD1C522953298A29CE0ABE
:1002A8000730CE05FA01FB014E08013E84004724C1
:1002B800FC00FD106F2996248A2917248A29EA232D
:1002C8008A2968238A2929248A2955248A298E2358
:1002D8008A29CC238A294E0884000730040203188F
:1002E8006D2904308A008230040782006F24402977
:1002F800BD22402940234029362240291523402980
:10030800D5204029E6214029962140294E0884001D
:10031800073004020318882904308A00893004074A
:1003280082001028D501D6018312031355083E3EDA
:100338008400831380080319A229A329B329550827
:100348003E3E8400000AD30055083E3E8400530810
:10035800800055083E3E84003F308005C7297B0851
:100368007A060F39D300D40156085406031DBE2956
:1003780055085306031DC129C229C72955083E3E01
:1003880084008001800A55083E3E84000008E92266
:10039800D3005508203E840053088000D50A03196D
:1003A800D60A5608803AFF0080307F02031DDE29F6
:1003B8000F305502031CE129E229982990240130C5
:1003C80038240800D501D6018312031355083E3E90
:1003D8008400053083130002031CF329F429072A3B
:1003E80055083E3E8400800A55083E3E84003B3056
:1003F8000002031C002A012A172A55083E3E8400E1
:1004080005308000172A7B087A060F39D300D401FB
:1004180056085406031D122A55085306031D152AAB
:10042800162A172A012A55083E3E84000008E922A8
:10043800D3005508203E840053088000D50A0319CC
:10044800D60A5608803AFF0080307F02031D2E2A04
:100458000F305502031C312A322AE8299024013032
:10046800382408002C08D1002908AC002608A90067
:100478002308A6002008A3002D08A0002A08AD0024
:100488002708AA002408A7002108A4002E08A10014
:100498002B08AE002808AB002508A8002208A500F4
:1004A8003E08A200D201D3018312031352083F3E33
:1004B800840083130008D00052083E3E8400500890
:1004C8008000D20A0319D30A5308803AFF0080300B
:1004D8007F02031D712A0E305202031C742A752AEA
:1004E800582A831203135108CC0090240230382470
:1004F80008008501860107309F002030831685009B
:1005080086018312CF01D001831203134F08203EC6
:100518008400831380014F082F3E84008001CF0A96
:100528000319D00A5008803AFF0080307F02031D6B
:100538009F2A0F304F02031CA22AA32A882AF901F6
:10054800F80183120313CD01F701FD140730CE0023
:10055800FA01FB01FC01FF308500FF308600101016
:100568001211831681123230831281008B168B1779
:1005780008002008D0002108A0002208A100500887
:10058800A2002308D0002408A3002508A4005008CE
:10059800A5002608D0002708A6002808A7005008AC
:1005A800A8002908D0002A08A9002B08AA0050088A
:1005B800AB002C08D0002D08AC002E08AD00500868
:1005C800AE009024033038240800D20002305202D2
:1005D8000318EF2AF02AF22A0030142B1E30520298
:1005E8000318F72AF82AFD2AFF30D2070310520D04
:1005F800142B223052020318022B032B052B4030F8
:10060800142B3E30520203180A2B0B2BF02A5208E7
:100618001F39023ED200FE30CF0052080424403E6B
:1006280008002208D3002508A2002808A5002B08E6
:10063800A8002E08AB005308AE003E08E922D300FC
:100648005308A0005308A1005308A3005308A400AE
:100658005308A6005308A7005308A9005308AA0086
:100668005308AC005308AD00BE0ABE0A3F30BE05B1
:1006780090240230382408002008D0002308A00065
:100688002608A3002908A6002C08A9005008AC00D9
:100698002108D0002408A1002708A4002A08A700E0
:1006A8002D08AA005008AD002208D0002508A20095
:1006B8002808A5002B08A8002E08AB005008AE009B
:1006C8009024033038240800D201D3018312031385
:1006D80052083E3E8400403083138000D20A03193A
:1006E800D30A5308803AFF0080307F02031D7E2B17
:1006F8000C305202031C812B822B6A2B3030831260
:100708000313CA001830CB00CC010030AD230230EF
:1007180038240800D201D3018312031352083E3E45
:100728008400043083138000D20A0319D30A5308C3
:10073800803AFF0080307F02031DA42B0F30520245
:10074800031CA72BA82B902B0630AD23013038248F
:10075800080083120313CF00D001D10183120313C1
:100768005008203E84004F0883138000D00A0319E4
:10077800D10A5108803AFF0080307F02031DC62B42
:100788000F305002031CC92BCA2BB22B902408002F
:10079800D201D3018312031352083E3E840083130F
:1007A8008001D20A0319D30A5308803AFF00803027
:1007B8007F02031DE12B0F305202031CE42BE52BB3
:1007C800CE2B0030AD230130382408000030AD2393
:1007D800403083120313A0004030A1004030A20033
:1007E8002030A3002030A4002030A5001030A6003F
:1007F8001030A7001030A8009024033038240800D7
:10080800D100D001511C092C0A2C0C2C4F08D00700
:100818000310CF0D0310D10CD108031D142C152C77
:10082800062C500808000030AD2340308312031313
:10083800A2004030A5004030A8004030AB00403056
:10084800AE009024033038240800BE010030AD23E8
:10085800403083120313A2001530A5000530A8000C
:10086800902402303824080083120313CF00F1309B
:10087800F700F708031D412C422C3D2CCF0B452CCB
:10088800462C3B2C080004308A000408840A82079E
:10089800003405340534053405340534053423346F
:1008A80023340030AD23403083120313A2001530E7
:1008B800A5000530A8009024023038240800FD0166
:1008C800773084007D307A248313203084004F30C1
:1008D8007A2483013F293E08E922AD2383120313BA
:1008E800BE0A3F30BE05013038240800640080018C
:1008F800840A04060319003404067B2C5F29612945
:1009080063296529672969296B297A297C297E2920
:1009180080298229842986297D18932C942C902C4F
:080928007D140800BE01080067
:02400E0010FFA1
:00000001FF
