:020000000C28CA
:10000800FE00030EF0000408F1000A08F200A12B1C
:10001800F02EDC004108031D122822283E08343E39
:1000280084005C088000BE0A2222003A03191D28B9
:100038001E28BF28C101BE01BF28BF2820305C028E
:10004800031827282828AE28A02802301427FA01E8
:10005800BF28F8110A27BF28F8152E28F81078119C
:100068002E28F81478112E28F81078152E28F81450
:1000780078152E2810301427582520301D27812563
:10008800103014275825BF28B024BF281030142753
:10009800582520301D278125BF283E27BF2814302A
:1000A8007A020318582859285C2800302E27BF28C0
:1000B80040307A02031C612862286B2854307A0287
:1000C8000318672868286B2840302E27BF2814306B
:1000D8007A02031C702871287A2828307A020318BB
:1000E800762877287A2814302E27BF2854307A02A9
:1000F800031C7F288028212868307A020318852865
:100108008628212854302E27BF287816BF28781231
:10011800BF28722478104F26BF283E277D30D2266C
:1001280040302E278D30D2267A082E277810BF2807
:10013800BE015C08C100BF285C08FF3E031C9C2868
:1001480084001F30040203189C2802308A00CC3037
:100158000407820080305C02031CB328B428BC2842
:10016800A0305C020318B928BA28BC280730DC057F
:100178005C081D2781250800043034020318C528AF
:10018800C6287129043039020318CB28CC287129D4
:10019800143037020318D128D228712936083702BB
:1001A800031CD728D828712936083702D6007A08C0
:1001B800D200FF30F5003508F6000310340D112683
:1001C800B81FE728E828EF283803FF3AB800B81323
:1001D800D501D50AF028D5010630F3003808A9253D
:1001E800D900FA30F3005908AE26CF0038084F0777
:1001F800DA00DA08031D0129022907290630DA0086
:100208005903DB0009295908DB005508031D0D298E
:100218002F295A08063CCF00CF0A1F30D0000030E3
:10022800D1001929510DD10CD00CCF0B16298312EE
:1002380003135008F5003508F6000314340D112691
:100248002030D3000310340DD4005B08D7005708C2
:100258005602DB0049291F30CF005A08063C013EF0
:1002680037290310CF0DFF3E031D35294F08F50030
:100278003508F6000314340D11260310340DD3008D
:100288002030D4005B085602D7003908F60036083B
:100298003226D801522953081D27D80A5808803A0F
:1002A800CF005B08803ACF02031C5B295C294F29E9
:1002B8000314340D1D27D801642954081D27D80AB2
:1002C8005808803ACF005708803ACF02031C6D299E
:1002D8006E296129781052082E270800023034024E
:1002E800031877297829212A1230350203187D2925
:1002F8007E29212A30303602031C83298429212AA9
:100308003A303602031889298A29212A7A08CF0027
:1003180078188F299029BE29D5015508CC000310DB
:10032800CC0D0310CC0D03104C0D403ED000D40171
:100338005408500714275508CC000310CC0D03109F
:10034800CC0D0310CC0D01304C07CD0054084D07DF
:10035800840000231D27D40A08305402031CB52941
:10036800B6299C29D50A08305502031CBC29BD2989
:10037800912978143030B602D501D4015508CC0043
:100388000310CC0D41304C07CD000630F300360881
:10039800AE264D07CE0054084E0784000023D10036
:1003A8005108D3000F30D305510E0F39D200031076
:1003B800540DF6005508350732265208083A031D31
:1003C800E629E729EA2920301D27EC2952081D27AC
:1003D8000314540DF6005508350732265308083A19
:1003E800031DF729F829FB2920301D27FD2953086B
:1003F8001D27D40A02305402031C032A042AC229E6
:10040800D50A03305502031C0A2A0B2AC1293403D2
:10041800031D0F2A102A1F2AD5015508F600350892
:10042800033E322620301D27D50A04305502031C0E
:100438001E2A1F2A112A4F082E270800BD2A01301C
:10044800CB2A3408CC25232A3E08023A031D2D2A3C
:100458002E2A332A3508F60034083226232A00309B
:10046800CB2A3E08063A031D3A2A3B2A332AC020E3
:10047800232A3E08023A031D422A432A332A80309F
:100488003502031C482A492A512AA030350203188C
:100498004E2A4F2A512A0730B50515303402031861
:1004A800562A572A232A3408203E8400350880001B
:1004B800232A3E08033A031D622A632A332A073097
:1004C80035020318682A692A232A0A30F3003508F6
:1004D800073CAE26C0003608BF003408DD00232ADA
:1004E8003E08093A031D792A7A2A332AEF25232A56
:1004F8003E08023A031D812A822A332A34085B3ACD
:10050800031D872A882A232A952AEB24232AB02424
:10051800232AFA0A14301427232AFA03103014273E
:10052800232A3508413A0319892A033A03198B2AE1
:10053800013A03198D2A073A0319912A232A3E08FA
:10054800033A031DA82AA92A332A7221232A3E081E
:10055800023A031DB02AB12A332AB82A35081D27C2
:10056800232A35081427232A3408013A0319B22A02
:10057800B52A4108F73E031C332A840015300402CB
:100588000318332A02308A00EB300407820008007F
:1005980029282D2830283228352838283B283E2875
:1005A8009C2848284A28512853289C289C28BF283A
:1005B8009C289C28BF28BF289C289C2889288B28F1
:1005C8009C288D289C289C289C289C289128232A94
:1005D800332A332A332A332A252A232A332A282A54
:1005E800352A332A332A3D2A5D2A332A332A742AA4
:1005F800332A7C2AA32AAB2A03308A000408840AF7
:1006080082070034983498348C348C348634863499
:100618008334833483348334863486348C348C3402
:10062800983498349F349F348034803480348034B4
:100638008034803480348034803480348034803412
:100648009F349F3498349834983498349834983434
:1006580098349834833483348334833483348334B0
:100668008334833483348334873487348B348B34B2
:100678009334933481348334823486348C3488348C
:100688009F349F341434403428348334053451342F
:100698008134883465345534883488342834873430
:1006A8002834133401348334183480342834233400
:1006B800013401348134283418342834443444341F
:1006C8005534803423348334283401348734403417
:1006D8001834233488340134283488342134443499
:1006E80048348834103410342334833401340134CA
:1006F800103480342334833406345134433446343C
:100708004134363433343434203445346D3475341C
:100718006C34613474346F34723400347634323467
:100728002E343234323420343234303431343634A6
:10073800313430343134353400348030831203138B
:1007480081070B11DE0BA92BAA2BFA2BDE0AEF2B44
:10075800851AAF2BB02BB32BDE01DE0ACB0A791832
:10076800B62BB72BFA2B4F3048020318BC2BBD2BE6
:10077800FA2B05147914FA2B851AC32BC42BC82B12
:100788000430DE00CB0AFA2BCB01FA2B0310CA0C7B
:10079800851ECF2BD02BC42BCA17C42B791CD52B65
:1007A800D62BC82BC80A4708A03E84004A088313E2
:1007B8008000C70A50304702031CE32BE42BE62BCA
:1007C8005030C70250304802031CEB2BEC2BC82BCF
:1007D80005107910C82B4B08003A0319AC2B013AC5
:1007E8000319C02B0B3A0319D22BCA2B4208031D3D
:1007F800FE2B0A2C420843020318032C042C062C57
:100808008514072C8510C30A3F30C3054508031D0E
:100818000E2C102CC5031F2C4608031D142C182C55
:10082800C6032730C5001F2C4408031D1C2C1F2C91
:10083800C4034008C6003D08031D232C242CBD0317
:1008480072088A0071088400700E8300FE0E7E0E06
:10085800090004305D020318322C332C712C7A08FD
:10086800CE005D08F60000303226C1268312CD0086
:10087800D001D00A5D08F60050083226C12683123E
:10088800CF005D08F6005008FF3E32264F081D27AE
:10089800D00A14305002031C522C532C3E2C5D08F5
:1008A800F6001330322620081D27D001D00A500840
:1008B800203E840083130008CC0050081F3E8400AB
:1008C8004C088000D00A14305002031C6C2C6D2C8C
:1008D8005B2C4D08B3004E082E2708003230FD2649
:1008E800051185113C30860035270230BD00BD0852
:1008F800031D7F2C802C7B2C0C3086003527023082
:10090800BD00BD08031D892C8A2C852C013086006A
:1009180035270230BD00BD08031D932C942C8F2C65
:100928000630860035270130FD260C308600352735
:100938000230BD00BD08031DA22CA32C9E2C023042
:10094800860035270230FD26C2018510F815F810FB
:1009580078117816FA01080014307A020318B52CB9
:10096800B62CBA2C7A08403E2E27EA2C40307A0260
:10097800031CBF2CC02CCA2C54307A020318C52C77
:10098800C62CCA2C7A08D43E2E27EA2C14307A02B8
:10099800031CCF2CD02CDA2C28307A020318D52C43
:1009A800D62CDA2C7A08403E2E27EA2C54307A02CC
:1009B800031CDF2CE02CEA2C68307A020318E52CA3
:1009C800E62CEA2C7A08AC3E2E27EA2C08001430D4
:1009D8007A020318F02CF12CF52C7A08543E2E27B5
:1009E800252D40307A02031CFA2CFB2C052D54309F
:1009F8007A020318002D012D052D7A08C03E2E27F6
:100A0800252D14307A02031C0A2D0B2D152D2830A4
:100A18007A020318102D112D152D7A082C3E2E2739
:100A2800252D54307A02031C1A2D1B2D252D6830D4
:100A38007A020318202D212D252D7A08C03E2E2755
:100A4800252D08008501860107309F002030831678
:100A5800850086018312C301BD01C401C601C50119
:100A6800CB01C801C901C701DE01DE0A7914C10141
:100A7800FF30DD00F3017308203E84007308413E17
:100A88008000F30A14307302031C4B2D4C2D3F2DAC
:100A98007810101012118316811280308312810091
:100AA8008B168B1705140800FA03781E5C2D5D2D34
:100AB800802D722D6730FA007A082E27802D13308A
:100AC800FA007A082E27802D5330FA007A082E274C
:100AD800802D2730FA007A082E27802D7A08133ABD
:100AE8000319682D2C3A0319632D6C3A03196D2DDF
:100AF800AC3A03195E2D802D0800FA0A781E852D60
:100B0800862DA82D9A2D4030FA007A082E27A82D78
:100B18001430FA007A082E27A82D5430FA007A08E3
:100B28002E27A82DFA017A082E27A82D7A08143A1C
:100B38000319872D3C3A0319912D7C3A03198C2D02
:100B48003C3A0319962DA82D0800F400F601730805
:100B5800031DAF2DCA2DF501F50AB52D0310F30DB0
:100B6800F50AF31FB82DB92DB22D0310F60D730831
:100B78007402031CC02DC12DC42D7308F402761411
:100B88000310F30CF50BC92DCA2DB92D76080800F2
:100B9800F50064307502031CD22DD32DD62DC20169
:100BA8008514EE2D7508031DDA2DEC2D7508F3005C
:100BB8000310F30C7508F4000310F40C0310F40C84
:100BC8000310F40C74087307C2003F30C205EE2D01
:100BD800C20185100800083034020318F42DF52DE1
:100BE8000F2EB40DB40D340DF839B4003F30B407EE
:100BF800F601F60A7608340714277608343E84008E
:100C080000081D27F60A09307602031C0C2E0D2E4B
:100C1800FE2D7A082E2778100800CC00CC0DCC0DBC
:100C28004C0DF839CC004030CC07CE01F61F1D2EF4
:100C38001E2E212E7508CD00222ECD014E084C0700
:100C480014274D081D270310F60D7610CE0A08301C
:100C58004E02031C302E312E1A2E0800F700432EA8
:100C680077082E274E2E7708403E2E274E2E7708DF
:100C7800143E2E274E2E7708543E2E274E2E7608E9
:100C880084000430040203184E2E07308A003A30DC
:100C98000407820008006430CC257D30D22640301D
:100CA8002E278D30D2267A082E270130E2262130D1
:100CB800F60076081D278125F60A71307602031C96
:100CC800662E672E5D2E0130E2263E270800262577
:100CD80072244F264808031D722E742E84260D2078
:100CE80004305D020318792E7A2E6E2EC408031D77
:100CF8007E2E7F2E6E2E2D243F08C4006E2E0C28CB
:100D08004808031D882E842EC8034908A03E840085
:100D180083130008F300C90A50304902031C952EBA
:100D2800962E982E5030C90273080800FF3083169B
:100D380086008312051185150516BD01BD0A060832
:100D4800F3000512F31BA92EAA2EA02E85118316D7
:100D580086010800F500F401751CB32EB42EB62EDA
:100D68007308F4070310F30D0310F50CF508031DC1
:100D7800BE2EBF2EB02E740808009A26FF308600BB
:100D88008312051585150516BD01BD0A0608F40070
:100D9800051285118316860174080800F500D92EFE
:100DA8007508840000231D27F50A750884000023B0
:100DB8000038031DE02EE12ED42E0800F400043084
:100DC800F500FA30FD26F50BEA2EEB2EE52EF40B96
:100DD800EE2EEF2EE32E0800F801FA0183132030DF
:100DE80084004C302627A0308400F0302627830169
:100DF8006B2EF3002730BD00BD08031D042F052FFF
:100E0800002FF30B082F092FFE2E08000030F819C9
:100E18000430F818023E7819013E083E14270800ED
:100E2800F4009A2683120511851174088600352767
:100E38000800F4009A2683120515851174088600A7
:100E48003527080064008001840A04060319003469
:100E58000406272FF5007508803E14277508FA0048
:100E680008000516BD01BD0A05120800342E372EEC
:0C0E78003B2E3F2E01301427FA01080029
:02400E0002FFAF
:00000001FF
